:1000000015C1000043C1000041C100003FC1000014
:100010003DC100003BC1000039C1000037C10000F4
:1000200035C1000067C5000065C5000063C500005C
:100030002DC100002BC1000029C1000027C1000014
:1000400025C1000023C1000021C100001FC1000024
:100050001DC100001BC1000019C1000001C5000046
:1000600015C10000C7C400009CC400000FC10000FF
:100070000DC100000BC1000009C1000007C1000054
:1000800005C1000003C1000001C10000FFC0000065
:10009000FDC00000FBC00000F9C00000F7C0000078
:1000A000F5C00000F3C00000F1C00000EFC0000088
:1000B000EDC00000EBC00000E9C00000E7C0000098
:1000C000E5C00000E3C00000E1C00000DFC00000A8
:1000D000DDC00000DBC00000D9C00000D7C00000B8
:1000E000D5C00000E602E902D802DC02E0022003EB
:1000F000ED02F102F702FB02FF02050309030D0303
:100100002003130317031B0300000A0B02090C0D45
:100110000E080703040100000000000000000000BA
:1001200000000000000000000000000000000000CF
:10013000000000001211100000000000000000008C
:1001400000000000000000000000000000000000AF
:100150002200250028002B002E003100340002016F
:100160000000050108010B01000021002400270008
:100170002A002D00300033000101000004010701B6
:100180000A01000020002300260029002C002F0077
:100190003200000100000301060109010505050503
:1001A000070508080808020202020A0A08080404EF
:1001B000040401010101010101010303030303031D
:1001C0000303040707070C0C0C0C0C0C0C0C0202AC
:1001D000020206060606060606060B0B0B0B0B0BA9
:1001E0000B0B010210202008081020401020408036
:1001F00002010201080402010102040810204080EB
:100200008040201008040201800402018040201078
:1002100008040201080402010102040810204080C1
:100220000102040810204080F8050C0A11241FBEAA
:10023000CFEFD1E2DEBFCDBF00E00CBF23E0ACE4E6
:10024000B2E001C01D92A83AB207E1F712E0A0E0C7
:10025000B2E0E6EFF4E100E00BBF02C007900D92C0
:10026000AC34B107D9F711E0C5E1D1E000E006C038
:1002700021970109802FFE010E944A0AC431D1074B
:1002800080E00807A9F7C2D50C946A0AB9CE0F938B
:100290001F93CF93DF93C82FD62F06E813E0D80122
:1002A00011968D919C911297DC01ED91FC9101903A
:1002B000F081E02DD8016C911995F801818192812E
:1002C000DC01ED91FC910190F081E02D6C2F1995EE
:1002D000F80181819281DC01ED91FC910190F08126
:1002E000E02D6D2F1995F801A181B2812D913C91DE
:1002F000119790816D2F690F6C0F6F77E901E8817D
:10030000F981CD01DF91CF911F910F911994CF9277
:10031000DF92EF92FF920F931F93CF93DF936C01C5
:100320007A018B01C0E0D0E0CE15DF0589F0D8015D
:100330006D918D01D601ED91FC910190F081E02D40
:10034000C6011995892B11F47E0102C02196ECCFCC
:10035000C701DF91CF911F910F91FF90EF90DF9038
:10036000CF900895FC01538D448D252F30E0842FCC
:1003700090E0821B930B541710F0CF9608950197CD
:100380000895FC01918D828D981761F0828DDF01B7
:10039000A80FB11D5D968C91928D9F5F9F73928F78
:1003A00090E008958FEF9FEF0895FC01918D828D6D
:1003B000981731F0828DE80FF11D858D90E008953A
:1003C0008FEF9FEF0895FC01918D228D892F90E092
:1003D000805C9F4F821B91098F739927089583EA50
:1003E00092E0F1DF21E0892B09F420E0822F0895CB
:1003F000FC01848DDF01A80FB11DA35ABF4F2C91C2
:10040000848D90E001968F739927848FA689B78990
:100410002C93A089B1898C9180648C93938D848D69
:10042000981306C00288F389E02D80818F7D808338
:100430000895EF92FF920F931F93CF93DF93EC01F8
:1004400081E0888F9B8D8C8D981305C0E889F98990
:10045000808185FD23C0F62E0B8D10E00F5F1F4FAE
:100460000F731127E02E8C8DE8120BC00FB607FC1E
:10047000FACFE889F989808185FFF5CFCE01B8DF11
:10048000F2CF8B8DFE01E80FF11DE35AFF4FF08292
:100490000B8FEA89FB898081806207C0EE89FF8922
:1004A0006083E889F98980818064808381E090E0BD
:1004B000DF91CF911F910F91FF90EF900895CF930F
:1004C000DF93EC01888D8823C1F0EA89FB89808164
:1004D00085FD05C0A889B9898C9186FD0EC00FB62F
:1004E00007FCF5CF808185FFF2CFA889B9898C916F
:1004F00085FFEDCFCE017CDFE8CFDF91CF9108956E
:1005000080E090E0892B19F06ADF811125C080E03E
:1005100090E0892B41F080E090E0892B21F00E944F
:10052000000081111CC080E090E0892B41F080E048
:1005300090E0892B21F00E940000811113C080E01F
:1005400090E0892BA1F080E090E0892B81F00E945F
:10055000000081110AC008950E940000D8CF0E94B7
:100560000000E1CF0E940000EACF0C940000089543
:10057000362F90E0FC01E85FFE4F4491FC01EE5104
:10058000FE4F2491FC01E456FE4F9491992309F407
:100590006AC0442309F454C050E0FA013197E231B3
:1005A000F10508F04DC08827EE58FF4F8F4F72C7F6
:1005B000809180008F7707C0809180008F7D03C07D
:1005C00080918000877F809380003AC084B58F77C8
:1005D00002C084B58F7D84BD33C08091B0008F7719
:1005E00003C08091B0008F7D8093B00029C08091BE
:1005F00090008F7707C0809190008F7D03C080911D
:100600009000877F809390001BC08091A0008F771F
:1006100007C08091A0008F7D03C08091A000877FDC
:100620008093A0000DC0809120018F7707C080913A
:1006300020018F7D03C080912001877F809320015E
:10064000E92FF0E0EE0FFF1FE25BFE4FA591B491A2
:100650008FB7F894EC91311103C020952E2301C07F
:100660002E2B2C938FBF08953FB7F8948091910261
:1006700090919202A0919302B091940226B5A89B0A
:1006800005C02F3F19F00196A11DB11D3FBFBA2F24
:10069000A92F982F8827820F911DA11DB11DBC0184
:1006A000CD0142E0660F771F881F991F4A95D1F749
:1006B00008958F929F92AF92BF92CF92DF92EF9266
:1006C000FF926B017C01D0DF4B015C01C114D104AE
:1006D000E104F104E9F0C8DFDC01CB0188199909D4
:1006E000AA09BB09883E9340A105B10578F321E032
:1006F000C21AD108E108F10888EE880E83E0981E3E
:10070000A11CB11CC114D104E104F10421F7DECF16
:10071000FF90EF90DF90CF90BF90AF909F908F9021
:1007200008952FB7F89460918D0270918E02809198
:100730008F02909190022FBF08958F929F92AF9257
:10074000BF92CF92DF92EF92FF926B017C01E9DFC3
:100750004B015C01C60ED71EE81EF91EE2DF6815CC
:1007600079058A059B0528F0C616D706E806F9061E
:10077000A8F7FF90EF90DF90CF90BF90AF909F9041
:100780008F90089520919702309198022817390789
:1007900071F49091950280919602981741F0E09142
:1007A0009502F0E0E45BFD4F808190E008958FEFCB
:1007B0009FEF089508951F93CF93DF93DC015C961C
:1007C0002D913C915D972115310539F481E090E040
:1007D00013969C938E9312973DC05196ED91FC9188
:1007E000529750969C915097892F80951FB75E968F
:1007F0004C915E9741FB772770F941FD6095F89425
:100800004081772311F0492B01C048234083E9013F
:100810002197F1F748E0508160FF02C0592B01C0D9
:1008200058235083E9012197F1F76695415099F7D4
:10083000772321F090818923808303C08081982BC6
:1008400090831FBF5C968D919C915D970197F1F706
:1008500021E030E0C901DF91CF911F9108952091EF
:100860009702309198022817390761F48091960217
:100870002091950290E0805C9F4F821B910960E47B
:1008800070E0F5C580E090E00895209197023091E6
:10089000980228173907B9F4909195028091960231
:1008A000981789F0E0919502F0E0E45BFD4F8081BC
:1008B0002091950230E02F5F3F4F2F733327209315
:1008C000950290E008958FEF9FEF0895E0919702D1
:1008D000F0919802E817F90769F4A389B4899C910B
:1008E0008589809589238C931092980210929702A3
:1008F00081E0089580E00895089580E090E00895F3
:10090000009761F0FC0101900020E9F73197AF01F9
:10091000481B590BBC0183EA92E0F9CC80E090E0DF
:1009200008958F929F92AF92BF920F931F93CF9390
:10093000DF93CDB7DEB7A1970FB6F894DEBF0FBE39
:10094000CDBF19A2423008F44AE08E010F5D1F4F5F
:10095000842E912CA12CB12CA501940166D5E62FF3
:10096000B901CA0101501109EA3014F4E05D01C077
:10097000E95CD801EC93232B242B252B69F7C801C4
:10098000BFDFA1960FB6F894DEBF0FBECDBFDF91DB
:10099000CF911F910F91BF90AF909F908F9008952E
:1009A00095D51F920F920FB60F9211240BB60F928E
:1009B0002F933F934F935F936F937F938F939F9367
:1009C000AF93BF93EF93FF9383EA92E011DDFF9122
:1009D000EF91BF91AF919F918F917F916F915F91B7
:1009E0004F913F912F910F900BBE0F900FBE0F9024
:1009F0001F9018951F920F920FB60F9211240BB6ED
:100A00000F922F938F939F93EF93FF93E091B302F5
:100A1000F091B4028081E091B902F091BA0282FDB6
:100A200012C090818091BC028F5F8F732091BD02B4
:100A3000821751F0E091BC02F0E0ED55FD4F958F2B
:100A40008093BC0201C08081FF91EF919F918F91B3
:100A50002F910F900BBE0F900FBE0F901F90189507
:100A60001F920F920FB60F9211242F933F938F93E3
:100A70009F93AF93BF9380918D0290918E02A0912E
:100A80008F02B091900230918C0223E0230F2D371A
:100A900020F40196A11DB11D05C026E8230F029682
:100AA000A11DB11D20938C0280938D0290938E0224
:100AB000A0938F02B0939002809191029091920244
:100AC000A0919302B09194020196A11DB11D809353
:100AD000910290939202A0939302B0939402BF91DB
:100AE000AF919F918F913F912F910F900FBE0F90DB
:100AF0001F9018951F920F920FB60F9211240BB6EC
:100B00000F922F933F934F935F936F937F938F93A6
:100B10009F93AF93BF93EF93FF93E0919702F09170
:100B20009802309709F451C0968DA685B7858585C2
:100B300091FF04C09C91892329F447C09C9189238B
:100B400009F043C0A389B4899C9185898095892344
:100B50008C93868997890197F1F7608D718DA685B1
:100B6000B785558538E020E0CB010197F1F7822F5A
:100B700090E095958795282F4C91452309F02068A2
:100B8000315091F7868D81FD20958091960290E0FD
:100B900001968F73992730919502381749F0A091EB
:100BA0009602B0E0A45BBD4F2C938093960203C0E5
:100BB000868D8160868F828D938D0197F1F7A38951
:100BC000B4899C918589892B8C93FF91EF91BF917A
:100BD000AF919F918F917F916F915F914F913F91D5
:100BE0002F910F900BBE0F900FBE0F901F90189576
:100BF0000F931F93CF93DF931092A6021092A5023A
:100C000088EE93E0A0E0B0E08093A7029093A80262
:100C1000A093A902B093AA0225E032E03093A40287
:100C20002093A30225EC30E03093B0022093AF0272
:100C300024EC30E03093B2022093B10220EC30E09B
:100C40003093B4022093B30221EC30E03093B6022B
:100C50002093B50222EC30E03093B8022093B70223
:100C600026EC30E03093BA022093B9021092BC0215
:100C70001092BD021092BE021092BF021092460363
:100C800010924703109248031092490310924A03AE
:100C900010924B0310924C0310924D0310924E038E
:100CA00010924F031092500310925103109252036E
:100CB00010925303109254031092550310928C0318
:100CC00010928B0380938D0390938E03A0938F03D8
:100CD000B093900387E192E090938A038093890315
:100CE0001092A00310929F031092A2031092A103EE
:100CF0001092A4031092A3031092A6031092A503CE
:100D00006091A7036E7F6D7F6093A7036695617006
:100D100081E0682782E12CDCE4EFF1E02491EEEA47
:100D2000F1E08491882399F090E0880F991FFC01ED
:100D3000E859FE4FA591B491FC01E25BFE4F85910D
:100D400094918FB7F894EC91E22BEC938FBFE4EF82
:100D5000F1E0E491E0939903EEEAF1E0E491F0E050
:100D6000EE0FFF1FE25BFE4F8591949190939B03E2
:100D700080939A0302EE11E0F8012491CCE9D1E0CE
:100D8000FE0184918823C9F090E0880F991FFC012F
:100D9000E859FE4FA591B491825B9E4FFC014591AD
:100DA00054913FB7F8949C91822F809598239C93FF
:100DB000FA019081892380833FBF8091A70381FD41
:100DC00003C061E080E0D4DB10929503F801049148
:100DD00000939603FE01C491EC2FF0E0EE0FFF1F8D
:100DE000EE57FE4F859194919093980380939703CB
:100DF00080E88093860389E893E09093880380934A
:100E00008703DF91CF911F910F910895789484B556
:100E1000826084BD84B5816084BD85B5826085BDF6
:100E200085B5816085BD80916E00816080936E0084
:100E30001092810080918100826080938100809176
:100E40008100816080938100809180008160809327
:100E500080008091B10084608093B1008091B000E7
:100E600081608093B00080919100826080939100B6
:100E700080919100816080939100809190008160C9
:100E8000809390008091A10082608093A100809166
:100E9000A10081608093A1008091A0008160809377
:100EA000A000809121018260809321018091210125
:100EB00081608093210180912001816080932001D5
:100EC00080917A00846080937A0080917A008260B9
:100ED00080937A0080917A00816080937A0080917B
:100EE0007A00806880937A001092C1001092820389
:100EF0001092830310928403109285031092420390
:100F000010924303109244031092450368EB7BE078
:100F100080E090E012DC60ED77E080E090E0C9DBFB
:100F2000E091B302F091B402D2E0D083E091AF023D
:100F3000F091B0021082E091B102F091B20280E132
:100F400080831092BB02E091B702F091B802C6E034
:100F5000C083E091B502F091B60280818061808308
:100F6000E091B502F091B602808188608083E091C3
:100F7000B502F091B602808180688083E091B5026D
:100F8000F091B60280818F7D8083CBDB609342033A
:100F900070934303809344039093450385E292E06A
:100FA000AFDC6AE070E080E090E0C7DB81E0809336
:100FB0005603E091B302F091B402D083E091AF0206
:100FC000F091B0021082E091B102F091B2028FEC88
:100FD00080831092BB02E091B702F091B802C08307
:100FE000E091B502F091B602808180618083E0914A
:100FF000B502F091B602808188608083E091B502ED
:10100000F091B602808180688083E091B502F09112
:10101000B60280818F7D80831092A4031092A30377
:101020001092A2031092A1031092A00310929F03AA
:101030008DE991E09093A6038093A5038091950399
:1010400096EF980F943048F02EEC280F243028F0BB
:1010500022EC280F283008F06EC02DEB30E03093E2
:10106000A00320939F032BE931E03093A203209348
:10107000A1032CE231E03093A4032093A303943026
:1010800060F02EEC280F243040F022EC280F28309E
:1010900008F4BAC1A0E0B0E0B9C1A8E6B0E0E8E663
:1010A000F0E02081943018F08E53883010F081E009
:1010B00001C084E0822B8C938091950396EF980F6A
:1010C000943058F02EEC280F243038F022EC280F02
:1010D000283030F020E030E005C02BE630E002C0E0
:1010E0002DE630E030939D0320939C03943010F460
:1010F0009AEF0BC0823381F0833381F0843381F027
:1011000092EC980F983070F492EC980F81E001C047
:10111000880F9A95EAF707C088E005C084E003C00D
:1011200082E001C081E080939E038091A5039091AD
:10113000A6030197F1F78091A3039091A403892B53
:1011400019F1809197029091980223E089389207D3
:10115000D9F0009709F0BADB8091A7038E7F8093C6
:10116000A703109296021092950289E893E090935B
:10117000980280939702E0919C03F0919D039081E7
:1011800080919E03892B8083C0918703D09188032F
:101190006CED75E080E090E08CDAE881F9810190F7
:1011A000F081E02D6AEACE011995E881F981068087
:1011B000F781E02DCE01199564EF71E080E090E0B9
:1011C00078DA60E088E063D860E08AE060D884EF95
:1011D000C82EDD24D394E12CF12CC1E0A2DA672BD8
:1011E000682B692B39F49DDA623071058105910510
:1011F00008F4CCC096DA60939F027093A0028093AB
:10120000A1029093A20280909B0290909C02A090D9
:101210009D02B0909E02681579058A059B0540F4F1
:1012200060939B0270939C0280939D0290939E0218
:1012300080909B0290909C02A0909D02B0909E0294
:101240009B01AC01281939094A095B0949015A0176
:101250003AEF83169104A104B10408F497C0609397
:101260009B0270939C0280939D0290939E02C09279
:101270004E03D0924F03E0925003F092510310922C
:10128000520310925303109254031092550380910D
:10129000460390914703A0914803B091490380937E
:1012A0004A0390934B03A0934C03B0934D0339DA58
:1012B00060934603709347038093480390934903D8
:1012C00030DA609342037093430380934403909316
:1012D000450327DA4B015C0187E392E011DB4AE02A
:1012E00061E070E080E090E01CDB8EE392E008DBE0
:1012F0004AE0C501B40115DB80E492E001DB809196
:10130000460390914703A0914803B0914903A5017A
:101310009401281B390B4A0B5B0BCA01B9014AE047
:1013200000DB80E492E0ECDA809146039091470381
:10133000A0914803B091490380904A0390904B03D9
:10134000A0904C03B0904D03BC01CD016819790900
:101350008A099B094AE0E5DA82E492E0D1DAE1D930
:101360004AE0DFDA84E492E0CBDA84E392E0C8DAA0
:1013700065E070E080E090E0E0D9D3D96093460367
:1013800070934703809348039093490360919902B7
:1013900070919A0277FF06C08BE062383FEF7307C7
:1013A00044F001C08AE06F3771052CF06EE770E001
:1013B00002C062E87FEF77FF03C071956195710904
:1013C0000E944701209100028091990290919A0217
:1013D000222331F0803891054CF01092000208C0B1
:1013E00081384FEF940724F4C0930002019601C0A6
:1013F000019790939A028093990264E670E080E0EE
:1014000090E057D97DD8EACEA8E6B0E0283008F4BD
:1014100046CEE0E0F0E045CE87E192E090938A038B
:101420008093890389E893E051CAA1E21A2EAA1B8E
:10143000BB1BFD010DC0AA1FBB1FEE1FFF1FA21784
:10144000B307E407F50720F0A21BB30BE40BF50B81
:10145000661F771F881F991F1A9469F7609570950A
:10146000809590959B01AC01BD01CF01089597FB3C
:10147000072E16F4009406D077FD08D013D007FC91
:1014800005D03EF4909581959F4F08957095619594
:101490007F4F0895EE0FFF1F881F8BBF0790F691B7
:1014A000E02D1994AA1BBB1B51E107C0AA1FBB1F4B
:1014B000A617B70710F0A61BB70B881F991F5A95E0
:1014C000A9F780959095BC01CD01089581E090E049
:1014D000F89400C011E0C5E1D1E000E005C0802F24
:1014E000FE01D8DF2196011DC631D10780E0080733
:0614F000B1F7F894FFCFF4
:1014F600010000000019028701B2015F02E301C189
:1015060001D50100000000DB0387017D04DA032F0B
:10151600044504C203564D4450565F317C315F5634
:101526004D4450560D0A00564D4450455F003A3220
:0C1536003A007C005F564D445045000018
:020000023000CC
:10E000000D9489F10D94B2F10D94B2F10D94B2F129
:10E010000D94B2F10D94B2F10D94B2F10D94B2F1F0
:10E020000D94B2F10D94B2F10D94B2F10D94B2F1E0
:10E030000D94B2F10D94B2F10D94B2F10D94B2F1D0
:10E040000D94B2F10D94B2F10D94B2F10D94B2F1C0
:10E050000D94B2F10D94B2F10D94B2F10D94B2F1B0
:10E060000D94B2F10D94B2F10D94B2F10D94B2F1A0
:10E070000D94B2F10D94B2F10D94B2F10D94B2F190
:10E080000D94B2F10D94B2F10D94B2F10D94B2F180
:10E090000D94B2F10D94B2F10D94B2F10D94B2F170
:10E0A0000D94B2F10D94B2F10D94B2F10D94B2F160
:10E0B0000D94B2F10D94B2F10D94B2F10D94B2F150
:10E0C0000D94B2F10D94B2F10D94B2F10D94B2F140
:10E0D0000D94B2F10D94B2F10D94B2F10D94B2F130
:10E0E0000D94B2F141546D656761323536300041AF
:10E0F000726475696E6F206578706C6F72657220DE
:10E1000073746B3530305632206279204D4C530099
:10E11000426F6F746C6F616465723E004875683F52
:10E1200000436F6D70696C6564206F6E203D200048
:10E130004350552054797065202020203D20005FF9
:10E140005F4156525F415243485F5F3D2000415658
:10E1500052204C696243205665723D20004743437C
:10E160002056657273696F6E203D20004350552024
:10E1700049442020202020203D20004C6F7720663D
:10E18000757365202020203D20004869676820665F
:10E190007573652020203D200045787420667573D6
:10E1A00065202020203D20004C6F636B2066757336
:10E1B000652020203D20004D617220203720323024
:10E1C000313300312E362E3800342E332E350056A2
:10E1D00023202020414444522020206F7020636F70
:10E1E00064652020202020696E73747275637469E1
:10E1F0006F6E2061646472202020496E74657272B3
:10E20000757074006E6F20766563746F7200726A49
:10E210006D702020006A6D70200057686174207056
:10E220006F72743A00506F7274206E6F7420737541
:10E2300070706F72746564004D7573742062652030
:10E2400061206C6574746572002000577269747483
:10E25000696E672045450052656164696E672045B7
:10E26000450045452065727220636E743D00504F35
:10E27000525400303D5A65726F2061646472003FF1
:10E280003D43505520737461747300403D454550C3
:10E29000524F4D207465737400423D426C696E6B41
:10E2A000204C454400453D44756D70204545505215
:10E2B0004F4D00463D44756D7020464C415348001B
:10E2C000483D48656C70004C3D4C69737420492F83
:10E2D0004F20506F72747300513D51756974005234
:10E2E0003D44756D702052414D00563D73686F7707
:10E2F00020696E7465727275707420566563746FF0
:10E30000727300593D506F727420626C696E6B00BD
:10E310002A0011241FBECFEFD1E2DEBFCDBF01E046
:10E320000CBF12E0A0E0B2E0EEE1FDEF03E00BBFB6
:10E3300002C007900D92A030B107D9F712E0A0E01B
:10E34000B2E001C01D92AE30B107E1F70F9460F367
:10E350000D948DFE01E20EBF0FEF0DBF11241FBE05
:10E360000D9460F30D9400F020E030E040ED57E0B4
:10E3700005C0FA013197F1F72F5F3F4F2817390792
:10E38000C0F308959C01260F311DC901A0E0B0E043
:10E390002F5F3F4FABBFFC018791882361F08093D3
:10E3A000C6008091C00086FFFCCF8091C0008064D1
:10E3B0008093C000EACF08958DE08093C6008091DD
:10E3C000C00086FFFCCF8091C00080648093C000B5
:10E3D0008AE08093C6008091C00086FFFCCF8091C8
:10E3E000C00080648093C00008950F94C2F10F9420
:10E3F000DCF10895FC019081992359F09093C600B7
:10E400008091C00086FFFCCF8091C0008064809323
:10E41000C0003196992379F70895282F982F929567
:10E420009F70892F805D8A3308F0895F8093C600D2
:10E430008091C00086FFFCCF8091C00080648093F3
:10E44000C000822F8F70982F905D9A3308F0995FEB
:10E450009093C6008091C00086FFFCCF8091C000E1
:10E4600080648093C00008959C01FB01853691056E
:10E470001CF46330710594F0C90164E670E00F94F8
:10E480002EFE605D7F4F6093C6008091C00086FFC6
:10E49000FCCF8091C00080648093C0002B30310598
:10E4A00014F43297B4F0C90164E670E00F942EFEC4
:10E4B0006AE070E00F942EFE605D7F4F6093C600AF
:10E4C0008091C00086FFFCCF8091C0008064809363
:10E4D000C000C9016AE070E00F942EFEC0968093E0
:10E4E000C6008091C00086FFFCCF8091C000806490
:10E4F0008093C00008951F93182F8EE692EE60E07F
:10E500000F94C2F11093C6008091C00086FFFCCF2B
:10E510008091C00080648093C0000F94DCF11F9153
:10E5200008952F923F924F925F926F927F928F92B7
:10E530009F92AF92BF92CF92DF92EF92FF920F9392
:10E540001F93DF93CF93CDB7DEB762970FB6F894E2
:10E55000DEBF0FBECDBF382E622ECA01DB015C01CB
:10E560006D01772420E2222E2E010894411C511CBB
:10E570008BC081E0A81680E0B80681E0C80680E084
:10E58000D80628F0C601AA27BB270F940DF2BB2797
:10E59000AD2D9C2D8B2D0F940DF28A2D0F940DF225
:10E5A0002092C6008091C00086FFFCCF8091C00001
:10E5B00080648093C0009DE29093C6008091C0006B
:10E5C00086FFFCCF8091C00080648093C0002092C1
:10E5D000C6008091C00086FFFCCF8091C00080649F
:10E5E0008093C00019828601750188249924A1E0D6
:10E5F0003A1651F03A1620F0B2E03B1661F409C029
:10E600000BBFF701779007C0C7010F9477FE782EF4
:10E6100002C0F7017080872D0F940DF22092C60082
:10E620008091C00086FFFCCF8091C0008064809301
:10E63000C000872D8052F401EF70F0708F3520F408
:10E64000E40DF51D708204C0E40DF51D8EE280839B
:10E650000894E11CF11C011D111D0894811C911CE2
:10E6600090E18916910409F0C2CF80E190E0A0E02A
:10E67000B0E0A80EB91ECA1EDB1E198AC2010F9493
:10E68000FAF10F94DCF16A94662009F072CF629679
:10E690000FB6F894DEBF0FBECDBFCF91DF911F91B3
:10E6A0000F91FF90EF90DF90CF90BF90AF909F9031
:10E6B0008F907F906F905F904F903F902F90089534
:10E6C0002F923F924F925F926F927F928F929F9282
:10E6D000AF92BF92CF92DF92EF92FF920F931F9370
:10E6E000DF93CF93CDB7DEB7CD53D1400FB6F894BB
:10E6F000DEBF0FBECDBF01E20EBF0FEF0DBF94B75F
:10E70000F894A89514BE80916000886180936000A1
:10E7100010926000789493FF05C0E0910002F091A0
:10E7200001021995279A2F9A8091C00082608093E8
:10E73000C00080E18093C40088E18093C1000000A4
:10E74000EE24FF24870144E0A42EB12CCC24DD2448
:10E7500024C0C5010197F1F70894E11CF11C011DCB
:10E76000111D21E2E2162EE4F20620E0020720E06D
:10E77000120718F031E0C32ED12CC801B70127ECE5
:10E780003BE140E050E00F9441FE611571058105C9
:10E79000910519F485B1805885B98091C00087FD35
:10E7A00003C0C114D104A9F2A6014F5F5F4FC25E3E
:10E7B000DE4F59834883CE51D140C25EDE4F8881FF
:10E7C0009981CE51D140019711F00D9410FEC05D9A
:10E7D000DE4F19821882C053D14060E0C15DDE4F28
:10E7E0001882CF52D14088249924C35DDE4F19820C
:10E7F0001882CD52D140C05EDE4F188219821A8233
:10E800001B82C052D140CE5CDE4F188219821A8220
:10E810001B82C253D140EE24FF2487010BBFF701B6
:10E8200007911691C45CDE4F19830883CC53D14005
:10E830000D940BFEC25EDE4F28813981CE51D1404E
:10E840002130310509F52091C600C25EDE4F1982E4
:10E850001882CE51D14022C02F5F3F4F4F4F5F4FA4
:10E86000213082E138078AE7480780E0580780F0C6
:10E87000C45CDE4FE881F981CC53D140EF5FFF4F9C
:10E8800019F0EE27FF27099420E030E040E050E047
:10E890008091C00087FFE0CF2091C600C35DDE4FAE
:10E8A00048815981CD52D1404F5F5F4FC35DDE4FEC
:10E8B00059834883CD52D140213209F063C64A3092
:10E8C000510508F05FC60894811C911C53E0851621
:10E8D000910409F059C600E010E018C081E280936D
:10E8E000C6008091C00086FFFCCF8091C00080648C
:10E8F0008093C0002F5F3F4F2931310579F70F9486
:10E90000DCF10F5F1F4F0530110519F020E030E0FA
:10E91000E5CF10920A0210920B0210920C02109294
:10E920000D02109206021092070210920802109235
:10E930000902109202021092030210920402109235
:10E9400005028FEE90EE60E00F94F5F180E191EE1C
:10E9500060E00F94C2F18091C00087FFFCCF9091DE
:10E96000C600903608F09F759032B8F09093C600BC
:10E970008091C00086FFFCCF8091C00080648093AE
:10E98000C000A0E2A093C6008091C00086FFFCCF2B
:10E990008091C00080648093C000983409F4D7C18E
:10E9A0009934B8F4923409F459C1933458F490333B
:10E9B00019F1903308F4E3C59F33A1F1903409F0C5
:10E9C000DEC5BDC0953409F470C1963409F0D7C5D1
:10E9D00098C1923509F42BC2933538F49C3409F46C
:10E9E000F5C1913509F0CBC518C2963509F445C279
:10E9F000993509F0C4C567C483E792EE62E00F94CD
:10EA0000F5F110920602109207021092080210927D
:10EA1000090210920A0210920B0210920C0210923C
:10EA20000D0213C18FE792EE62E00F94F5F18FEEC5
:10EA300090EE60E00F94F5F181E291EE60E00F94CA
:10EA4000C2F187EB91EE60E00F94F5F180E391EE77
:10EA500060E00F94C2F184EE90EE60E00F94F5F167
:10EA60008FE391EE60E00F94C2F186E090E061E008
:10EA700070E00F9434F20F94DCF18DE591EE60E0DC
:10EA80000F94C2F189EC91EE60E00F94F5F18EE401
:10EA900091EE60E00F94C2F183EC91EE60E00F9490
:10EAA000F5F18CE691EE60E00F94C2F18EE10F94E7
:10EAB0000DF288E90F940DF281E00F940DF20F949E
:10EAC000DCF18BE791EE60E00F94C2F119E0E0E039
:10EAD000F0E010935700E4918E2F0F940DF20F94F5
:10EAE000DCF18AE891EE60E00F94C2F1E3E0F0E03F
:10EAF00010935700E4918E2F0F940DF20F94DCF1D8
:10EB000089E991EE60E00F94C2F1E2E0F0E0109349
:10EB10005700E4918E2F0F940DF20F94DCF188EAE8
:10EB200091EE60E00F94C2F1E1E0F0E01093570045
:10EB30001491812F0F940DF20F94DCF107CF8BE825
:10EB400092EE62E00F94F5F18BE492EE60E00F94A8
:10EB5000F5F10F94DCF100E010E019C0C8016F2D51
:10EB60000F947FFEFF2031F489E492EE60E00F9471
:10EB7000C2F10BC0F092C6008091C00086FFFCCFAE
:10EB80008091C00080648093C0000F5F1F4FC80158
:10EB900081519F41A0E0B0E0ABBFFC01F790BAE229
:10EBA000FB1621F0E2E000301E07C1F60F94DCF105
:10EBB0000F94DCF187E592EE60E00F94F5F10F948D
:10EBC000DCF1CC24DD2400E010E01EC0C8010F946D
:10EBD00077FEF82E882331F489E492EE60E00F94FA
:10EBE000C2F10BC08093C6008091C00086FFFCCFAD
:10EBF0008091C00080648093C000FE1419F00894D6
:10EC0000C11CD11C0F5F1F4FC80181519F41A0E063
:10EC1000B0E0ABBFFC01E790FAE2EF1621F022E092
:10EC20000030120799F60F94DCF10F94DCF182E6C4
:10EC300092EE60E00F94C2F1C60161E070E00F94C3
:10EC400034F20F94DCF10F94DCF110920202109276
:10EC50000302109204021092050278CE89E992EE26
:10EC600062E00F94F5F1279A2F9A16C02F9880E052
:10EC700090E0E0EDF7E03197F1F7019684369105E9
:10EC8000C1F72F9A80E090E0E0EDF7E03197F1F7DF
:10EC9000019684369105C1F78091C00087FFE6CFC9
:10ECA0008091C00087FFFCCF64C485EA92EE62E0E9
:10ECB0000F94F5F140910202509103026091040219
:10ECC0007091050281E020E10F9491F2809102029F
:10ECD00090910302A0910402B091050280509F4FD1
:10ECE000AF4FBF4F8093020290930302A0930402A0
:10ECF000B093050280509041A040B04008F426CE69
:10ED0000A4CF83EB92EE62E00F94F5F140910602FE
:10ED100050910702609108027091090280E020E1A1
:10ED20000F9491F28091060290910702A09108023F
:10ED3000B091090280509F4FAF4FBF4F80930602A2
:10ED400090930702A0930802B0930902FFCD80ECD4
:10ED500092EE62E00F94F5F183E792EE60E00F949B
:10ED6000F5F18FE792EE60E00F94F5F18BE892EE0B
:10ED700060E00F94F5F189E992EE60E00F94F5F10F
:10ED800085EA92EE60E00F94F5F183EB92EE60E09D
:10ED90000F94F5F180EC92EE60E00F94F5F187ECC2
:10EDA00092EE60E00F94F5F188ED92EE60E00F9442
:10EDB000F5F18FED92EE60E00F94F5F18AEE92EEB0
:10EDC00060E00F94F5F183E093EEBDCD87EC92EE19
:10EDD00062E00F94F5F181E40F947BF282E40F94EA
:10EDE0007BF283E40F947BF284E40F947BF285E45E
:10EDF0000F947BF286E40F947BF287E40F947BF20E
:10EE000088E40F947BF28AE40F947BF28BE40F94F6
:10EE10007BF28CE40F947BF299CD88ED92EE62E068
:10EE20000F94F5F1772473948824992409C48FED05
:10EE300092EE62E00F94F5F140910A0250910B02BC
:10EE400060910C0270910D0282E020E10F9491F22A
:10EE500080910A0290910B02A0910C02B0910D02D8
:10EE600080509F4FAF4FBF4F80930A0290930B0289
:10EE7000A0930C02B0930D0269CD8AEE92EE62E08F
:10EE80000F94F5F184EE90EE60E00F94F5F18FECC5
:10EE900091EE60E00F94F5F1662477244301CC5D98
:10EEA000DE4F19821882C452D140D401C301B695F5
:10EEB000A79597958795CA5DDE4F88839983AA8326
:10EEC000BB83C652D140CC5DDE4FA881B981C4520C
:10EED000D1401196CC5DDE4FB983A883C452D14096
:10EEE000CD0162E070E00F9434F2B0E2B093C6005E
:10EEF0008091C00086FFFCCF8091C0008064809329
:10EF0000C000EDE2E093C6008091C00086FFFCCF18
:10EF10008091C00080648093C000F0E2F093C6004E
:10EF20008091C00086FFFCCF8091C00080648093F8
:10EF3000C000CA5DDE4FE880F9800A811B81C6529D
:10EF4000D140BB27A12F902F8F2D0F940DF2CA5DBA
:10EF5000DE4F8881C652D1400F940DF2B0E2FB2EF5
:10EF6000F092C6008091C00086FFFCCF8091C00067
:10EF700080648093C0000DE30093C6008091C000C0
:10EF800086FFFCCF8091C00080648093C00010E2B7
:10EF90001093C6008091C00086FFFCCF8091C00016
:10EFA00080648093C0008BBEF3012791C65DDE4F65
:10EFB0002883CA52D140A22EBB24CC24DD2408943D
:10EFC000611C711C811C911C8BBEF3018791282E42
:10EFD0003324442455240894611C711C811C911C09
:10EFE0008BBEF3013791C55DDE4F3883CB52D140E4
:10EFF0000894611C711C811C911C8BBEF30147910C
:10F00000C45DDE4F4883CC52D140ADEFEA2EAFEF66
:10F01000FA2EAFEF0A2FAFEF1A2F6E0C7F1C801E57
:10F02000911E142D032DF22CEE24EA0CFB1C0C1D5A
:10F030001D1D0F940DF220E22093C6008091C000A8
:10F0400086FFFCCF8091C00080648093C000C65DC5
:10F05000DE4F8881CA52D1400F940DF230E23093D6
:10F06000C6008091C00086FFFCCF8091C000806404
:10F070008093C000C45DDE4F8881CC52D1400F9494
:10F080000DF240E24093C6008091C00086FFFCCFA5
:10F090008091C00080648093C000C55DDE4F888190
:10F0A000CB52D1400F940DF250E25093C6008091A4
:10F0B000C00086FFFCCF8091C00080648093C000B8
:10F0C0008FEFE8168FEFF80680E0080780E018075A
:10F0D00031F484E092EE60E00F94C2F1DFC0D80119
:10F0E000C7018070907CA070B0708050904CA040A0
:10F0F000B040D1F52FEF3FE340E050E0E222F322B1
:10F1000004231523CA5DDE4FA880B980CA80DB8046
:10F11000C652D140AE0CBF1CC01ED11EAA0CBB1CD7
:10F12000CC1CDD1C8EE092EE60E00F94C2F1BB2798
:10F13000A12F902F8F2D0F940DF28E2D0F940DF285
:10F1400030E23093C6008091C00086FFFCCF8091F2
:10F15000C00080648093C0004EE34093C60080915D
:10F16000C00086FFFCCF87C08EE09EEFA0E0B0E03D
:10F17000E822F9220A231B239CE0E91694E9F90608
:10F1800090E0090790E0190709F088C0C45DDE4FE0
:10F19000A881CC52D140EA2EFF2400E010E0102FCD
:10F1A0000F2DFE2CEE24C55DDE4FB881CB52D14031
:10F1B000EB0EF11C011D111DD601C501817090706F
:10F1C000A070B070DC0199278827E80EF91E0A1F8D
:10F1D0001B1F20EF30E040E050E0A222B322C42207
:10F1E000D52241E1AA0CBB1CCC1CDD1C4A95D1F7F1
:10F1F000EA0CFB1C0C1D1D1D81E090E0A0E0B0E0BE
:10F20000282239224A225B2235E1220C331C441C7D
:10F21000551C3A95D1F7E20CF31C041D151D57013E
:10F220006801AA0CBB1CCC1CDD1C85E192EE60E0E1
:10F230000F94C2F1C801AA27BB270F940DF2BB2778
:10F24000A12F902F8F2D0F940DF28E2D0F940DF274
:10F2500090E29093C6008091C00086FFFCCF809121
:10F26000C00080648093C000AEE3A093C60080918C
:10F27000C00086FFFCCF8091C00080648093C000F6
:10F28000C601AA27BB270F940DF2BB27AD2D9C2DDD
:10F290008B2D0F940DF28A2D0F940DF20F94DCF14B
:10F2A000CC5DDE4FE881F981C452D140F99709F471
:10F2B0004DCBF4E0EF2EF12C012D112D6E0C7F1CA7
:10F2C000801E911EF2CD83E093EE62E00F94F5F183
:10F2D0008AE192EE60E00F94C2F18091C00087FF56
:10F2E000FCCF1091C6001F751093C6008091C0001E
:10F2F00086FFFCCF8091C00080648093C0000F9493
:10F30000DCF1812F81548A3108F036C1163409F4BA
:10F3100095C0173490F4133409F44EC0143430F40B
:10F320001134F1F0123409F01DC130C0143409F465
:10F3300059C0153409F016C16BC01A3409F4C4C0A1
:10F340001B3438F4173409F48FC0183409F00AC19B
:10F35000A1C01B3409F4D2C01C3409F003C1E8C0B9
:10F360008FEF81B90DC082B1809582B980E090E0C5
:10F37000E0EDF7E03197F1F70196883C9105C1F790
:10F380008091C00087FFEFCF12B8EFC08FEF84B934
:10F390000DC085B1809585B980E090E0E0EDF7E0A3
:10F3A0003197F1F70196883C9105C1F78091C00033
:10F3B00087FFEFCF15B8D9C08FEF87B90DC088B1DF
:10F3C000809588B980E090E0E0EDF7E03197F1F7C3
:10F3D0000196883C9105C1F78091C00087FFEFCF6F
:10F3E00018B8C3C08FEF8AB90DC08BB180958BB9A7
:10F3F00080E090E0E0EDF7E03197F1F70196883C8E
:10F400009105C1F78091C00087FFEFCF1BB8ADC059
:10F410008FEF8DB90DC08EB180958EB980E090E0F0
:10F42000E0EDF7E03197F1F70196883C9105C1F7DF
:10F430008091C00087FFEFCF1EB897C08FEF80BBD1
:10F440000DC081B3809581BB80E090E0E0EDF7E0F6
:10F450003197F1F70196883C9105C1F78091C00082
:10F4600087FFEFCF11BA81C08FEF83BB0DC084B38C
:10F47000809584BB80E090E0E0EDF7E03197F1F714
:10F480000196883C9105C1F78091C00087FFEFCFBE
:10F4900014BA6BC08FEF809301010FC080910201FD
:10F4A00080958093020180E090E0E0EDF7E03197F5
:10F4B000F1F70196883C9105C1F78091C00087FF64
:10F4C000EDCF1092020151C08FEF809304010FC065
:10F4D0008091050180958093050180E090E0E0ED4A
:10F4E000F7E03197F1F70196883C9105C1F78091DB
:10F4F000C00087FFEDCF1092050137C08FEF8093DA
:10F5000007010FC08091080180958093080180E079
:10F5100090E0E0EDF7E03197F1F70196883C910536
:10F52000C1F78091C00087FFEDCF109208011DC088
:10F530008FEF80930A010FC080910B01809580931B
:10F540000B0180E090E0E0EDF7E03197F1F70196F4
:10F55000883C9105C1F78091C00087FFEDCF1092E4
:10F560000B0103C085E292EEEEC98091C00087FFD7
:10F57000FCCF8091C600EAC988E392EEE4C98CE131
:10F5800091EEE1C988249924933011F1943028F444
:10F59000913089F09230B8F408C0953061F195301F
:10F5A000F0F0963009F048C043C02B3109F042C951
:10F5B00091E06BE13FC96227C15DDE4F2883CF52E6
:10F5C000D14092E037C9B22FA0E0622793E032C960
:10F5D000822F90E0A82BB92B622794E02BC92E3004
:10F5E00009F039C3622795E0C05DDE4F19821882A9
:10F5F000C053D1401FC9E1E0F0E0EC0FFD1FC05D3A
:10F60000DE4F08811981C053D140E00FF11F2083E4
:10F610000F5F1F4FC05DDE4F19830883C053D14079
:10F6200062270A171B0709F005C9D80196E002C92D
:10F63000261709F010C303C0973009F0FBC87724E0
:10F640009981933109F412C19431C8F4963009F4C8
:10F65000D8C0973050F4923009F406C1933009F4C1
:10F660006DC0913009F059C253C0913109F477C08F
:10F67000923108F0BBC0903109F04FC2F5C098310B
:10F6800009F487C0993150F4953109F4EFC09531F0
:10F6900008F4C6C1963109F040C2C2C19A3109F4DA
:10F6A0006CC09A3108F491C09B3109F45BC09D3164
:10F6B00009F033C29D81903359F48F81882311F46E
:10F6C0009EE11CC0813011F091E018C098E916C08D
:10F6D000892F807591F0903539F4E0E0F0E089E011
:10F6E0008093570094910AC0983539F4E3E0F0E034
:10F6F00089E080935700949101C090E01A821B82A8
:10F700008D818C831D829E831F8227E030E009C299
:10F710001A8288E08B8381E48C8386E58D8382E581
:10F720008E8389E48F8383E5888780E589878FE5E9
:10F730008A8782E38B872BE030E0F3C18A818139AD
:10F7400041F0823941F0803911F48FE005C080E04A
:10F7500003C082E001C08AE01A828B8344C0772410
:10F76000739482C08D81882311F48EE12CC0813086
:10F7700011F081E028C088E926C01A82E1E0F0E0BB
:10F7800089E08093570084918B831C8224E030E0D1
:10F79000C8C18B81803589F48C81883039F4E2E0EE
:10F7A000F0E089E08093570084910DC0E0E0F0E044
:10F7B00089E080935700849106C0E3E0F0E089E09F
:10F7C0008093570084911A82DFCF8D81836C99E0FA
:10F7D000E1E0F0E0082E90935700E89507B600FCB2
:10F7E000FDCF1A821B8223E030E09BC180EC8A832C
:10F7F000CE5CDE4F188219821A821B82C253D1401E
:10F800008EC18A8190E0A0E0B0E0582F44273327D2
:10F8100022278B8190E0A0E0B0E0DC0199278827C7
:10F82000282B392B4A2B5B2B8D8190E0A0E0B0E098
:10F83000282B392B4A2B5B2B8C8190E0A0E0B0E089
:10F84000BA2FA92F982F8827282B392B4A2B5B2BCF
:10F85000220F331F441F551FC05EDE4F288339839C
:10F860004A835B83C052D1401A8259C13A81C95C34
:10F87000DE4F3883C753D140CA5CDE4F1882C6536F
:10F88000D1408B81C82EDD24CA5CDE4F488159816E
:10F89000C653D140C42AD52A933109F082C0CE5C28
:10F8A000DE4F88819981AA81BB81C253D1408050AB
:10F8B000904CA340B04030F583E0CE5CDE4FE88052
:10F8C000F9800A811B81C253D140F70100935B008C
:10F8D00080935700E89507B600FCFDCFCE5CDE4F65
:10F8E000088119812A813B81C253D14000501F4FAA
:10F8F0002F4F3F4FCE5CDE4F088319832A833B8313
:10F90000C253D140C05EDE4F488159816A817B81FC
:10F91000C052D140DE011B9631E08C9111962C91A2
:10F9200011971296C75CDE4F2883C953D140C85C3B
:10F93000DE4F1882C853D14090E0C85CDE4FE881AA
:10F94000F981C853D1408E2B9F2B0C01FA01609393
:10F950005B0030935700E89511244E5F5F4F6F4F67
:10F960007F4F0EEFE02E0FEFF02ECE0CDF1CC114F8
:10F97000D10499F685E0C05EDE4F088119812A81A5
:10F980003B81C052D140F80120935B008093570027
:10F99000E89507B600FCFDCF81E180935700E8951C
:10F9A00035C0C05EDE4F88819981AA81BB81C0527B
:10F9B000D140B695A795979587957C018601ABE0D8
:10F9C000AA2EB12CAC0EBD1E0BC0D5016D915D01F0
:10F9D000C7010F947FFE0894E11CF11C01501040F8
:10F9E0000115110591F7A60160E070E0440F551F65
:10F9F000661F771FC05EDE4FE880F9800A811B8199
:10FA0000C052D1404E0D5F1D601F711F1A82C05E33
:10FA1000DE4F488359836A837B83C052D1407FC0C5
:10FA2000FA80C55CDE4FF882CB53D140C65CDE4F16
:10FA30001882CA53D1408B81C82EDD24C65CDE4FAC
:10FA400008811981CA53D140C02AD12A1A828981DA
:10FA5000BE016D5F7F4F843121F59601C05EDE4FA0
:10FA6000E880F9800A811B81C052D1400BBFF701A9
:10FA700087919691DB018C9311969C936E5F7F4FDB
:10FA8000D801C7010296A11DB11DC05EDE4F88835B
:10FA90009983AA83BB83C052D14022503040F1F6F3
:10FAA00036C0C05EDE4F288139814A815B81C052F9
:10FAB000D1400894C108D108760100E010E0089414
:10FAC000C11CD11C0894E11CF11C011D111DE20E8A
:10FAD000F31E041F151F21BDBB27A52F942F832FB5
:10FAE00082BD2F5F3F4F4F4F5F4FF89A80B5DB01CC
:10FAF0008D93BD012E153F054007510761F7C05E8C
:10FB0000DE4F288339834A835B83C052D1409601FC
:10FB10002D5F3F4FFB01108204C080EC8A8322E0FE
:10FB200030E08BE18093C6008091C00086FFFCCF5F
:10FB30008091C00080648093C000C15DDE4FF88179
:10FB4000CF52D140F093C6008091C00086FFFCCF19
:10FB50008091C00080648093C000432F3093C60022
:10FB60008091C00086FFFCCF8091C00080648093AC
:10FB7000C000922F2093C6008091C00086FFFCCF6A
:10FB80008091C00080648093C0008EE08093C600A6
:10FB90008091C00086FFFCCF8091C000806480937C
:10FBA000C00065E1C15DDE4FE880CF52D1406E25D7
:10FBB00069276427FE01319610C090819093C6009A
:10FBC0008091C00086FFFCCF31968091C000806498
:10FBD0008093C0006927215030402115310569F715
:10FBE0006093C6008091C00086FFFCCF8091C0006A
:10FBF00080648093C00085B1805885B9772081F4F6
:10FC0000C15DDE4F0881CF52D1400F5FC15DDE4F35
:10FC10000883CF52D14090E0A0E0B0E00D941AF4F8
:10FC200027982F9880E090E020ED37E0F901319798
:10FC3000F1F7019684369105C9F700008091C00064
:10FC40008D7F8093C00081E180935700E895EE2777
:10FC5000FF270994FFCF90E00D941AF497FB092E2B
:10FC600007260AD077FD04D02ED006D000201AF443
:10FC7000709561957F4F0895F6F7909581959F4F08
:10FC80000895A1E21A2EAA1BBB1BFD010DC0AA1FDD
:10FC9000BB1FEE1FFF1FA217B307E407F50720F0F5
:10FCA000A21BB30BE40BF50B661F771F881F991F70
:10FCB0001A9469F760957095809590959B01AC01B9
:10FCC000BD01CF010895AA1BBB1B51E107C0AA1FAC
:10FCD000BB1FA617B70710F0A61BB70B881F991FED
:10FCE0005A95A9F780959095BC01CD010895F99991
:10FCF000FECF92BD81BDF89A992780B50895262F31
:10FD0000F999FECF1FBA92BD81BD20BD0FB6F89400
:0EFD1000FA9AF99A0FBE01960895F894FFCF63
:040000033000E000E9
:00000001FF