:1000000015C1000043C1000041C100003FC1000014
:100010003DC100003BC1000039C1000037C10000F4
:1000200035C10000F6C50000F4C50000F2C50000AF
:100030002DC100002BC1000029C1000027C1000014
:1000400025C1000023C1000021C100001FC1000024
:100050001DC100001BC1000019C1000090C50000B7
:1000600015C1000056C500002BC500000FC10000DF
:100070000DC100000BC1000009C1000007C1000054
:1000800005C1000003C1000001C10000FFC0000065
:10009000FDC00000FBC00000F9C00000F7C0000078
:1000A000F5C00000F3C00000F1C00000EFC0000088
:1000B000EDC00000EBC00000E9C00000E7C0000098
:1000C000E5C00000E3C00000E1C00000DFC00000A8
:1000D000DDC00000DBC00000D9C00000D7C00000B8
:1000E000D5C00000E602E902D802DC02E0022003EB
:1000F000ED02F102F702FB02FF02050309030D0303
:100100002003130317031B03000021002400270012
:100110002A002D0030003300010100000401070116
:100120000A0100000A0B02090C0D0E080703040166
:1001300000000000000000000000000000000000BF
:10014000000000000000000000000000000012118C
:10015000100000000000000000000000000000008F
:100160000000000000000000000022002500280020
:100170002B002E00310034000201000005010801AF
:100180000B01000020002300260029002C002F0076
:100190003200000100000301060109010505050503
:1001A000070508080808020202020A0A08080404EF
:1001B000040401010101010101010303030303031D
:1001C0000303040707070C0C0C0C0C0C0C0C0202AC
:1001D000020206060606060606060B0B0B0B0B0BA9
:1001E0000B0B010210202008081020401020408036
:1001F00002010201080402010102040810204080EB
:100200008040201008040201800402018040201078
:1002100008040201080402010102040810204080C1
:1002200001020408102040808706870A11241FBE9F
:10023000CFEFD1E2DEBFCDBF00E00CBF23E0AAE4E8
:10024000B2E001C01D92A43AB207E1F712E0A0E0CB
:10025000B2E0ECEEF5E100E00BBF02C007900D92BA
:10026000AA34B107D9F711E0C5E1D1E000E006C03A
:1002700021970109802FFE010E94C50AC431D107D0
:1002800080E00807A9F712D60C94E50AB9CE0F93BF
:100290001F93CF93DF93C82FD62F02E813E0D80126
:1002A00011968D919C911297DC01ED91FC9101903A
:1002B000F081E02DD8016C911995F801818192812E
:1002C000DC01ED91FC910190F081E02D6C2F1995EE
:1002D000F80181819281DC01ED91FC910190F08126
:1002E000E02D6D2F1995F801A181B2812D913C91DE
:1002F000119790816D2F690F6C0F6F77E901E8817D
:10030000F981CD01DF91CF911F910F911994CF9277
:10031000DF92EF92FF920F931F93CF93DF936C01C5
:100320007A018B01C0E0D0E0CE15DF0589F0D8015D
:100330006D918D01D601ED91FC910190F081E02D40
:10034000C6011995892B11F47E0102C02196ECCFCC
:10035000C701DF91CF911F910F91FF90EF90DF9038
:10036000CF900895FC01538D448D252F30E0842FCC
:1003700090E0821B930B541710F0CF9608950197CD
:100380000895FC01918D828D981761F0828DDF01B7
:10039000A80FB11D5D968C91928D9F5F9F73928F78
:1003A00090E008958FEF9FEF0895FC01918D828D6D
:1003B000981731F0828DE80FF11D858D90E008953A
:1003C0008FEF9FEF0895FC01918D228D892F90E092
:1003D000805C9F4F821B91098F73992708958FE945
:1003E00092E0F1DF21E0892B09F420E0822F0895CB
:1003F000FC01848DDF01A80FB11DA35ABF4F2C91C2
:10040000848D90E001968F739927848FA689B78990
:100410002C93A089B1898C9180648C93938D848D69
:10042000981306C00288F389E02D80818F7D808338
:100430000895EF92FF920F931F93CF93DF93EC01F8
:1004400081E0888F9B8D8C8D981305C0E889F98990
:10045000808185FD23C0F62E0B8D10E00F5F1F4FAE
:100460000F731127E02E8C8DE8120BC00FB607FC1E
:10047000FACFE889F989808185FFF5CFCE01B8DF11
:10048000F2CF8B8DFE01E80FF11DE35AFF4FF08292
:100490000B8FEA89FB898081806207C0EE89FF8922
:1004A0006083E889F98980818064808381E090E0BD
:1004B000DF91CF911F910F91FF90EF900895CF930F
:1004C000DF93EC01888D8823C1F0EA89FB89808164
:1004D00085FD05C0A889B9898C9186FD0EC00FB62F
:1004E00007FCF5CF808185FFF2CFA889B9898C916F
:1004F00085FFEDCFCE017CDFE8CFDF91CF9108956E
:1005000080E090E0892B19F06ADF811125C080E03E
:1005100090E0892B41F080E090E0892B21F00E944F
:10052000000081111CC080E090E0892B41F080E048
:1005300090E0892B21F00E940000811113C080E01F
:1005400090E0892BA1F080E090E0892B81F00E945F
:10055000000081110AC008950E940000D8CF0E94B7
:100560000000E1CF0E940000EACF0C940000089543
:10057000362F90E0FC01EE5DFE4F4491FC01EE5100
:10058000FE4F2491FC01E456FE4F9491992309F407
:100590006AC0442309F454C050E0FA013197E231B3
:1005A000F10508F04DC08827EE58FF4F8F4FEDC77B
:1005B000809180008F7707C0809180008F7D03C07D
:1005C00080918000877F809380003AC084B58F77C8
:1005D00002C084B58F7D84BD33C08091B0008F7719
:1005E00003C08091B0008F7D8093B00029C08091BE
:1005F00090008F7707C0809190008F7D03C080911D
:100600009000877F809390001BC08091A0008F771F
:1006100007C08091A0008F7D03C08091A000877FDC
:100620008093A0000DC0809120018F7707C080913A
:1006300020018F7D03C080912001877F809320015E
:10064000E92FF0E0EE0FFF1FE859FE4FA591B4919E
:100650008FB7F894EC91311103C020952E2301C07F
:100660002E2B2C938FBF0895CF93DF9390E0FC0146
:10067000EE51FE4F2491FC01E456FE4F84918823F5
:1006800061F190E0880F991FFC01E85FFE4FC59172
:10069000D491FC01E859FE4FA591B491611109C0B4
:1006A0009FB7F8948881209582238883EC912E232C
:1006B0000BC0623061F49FB7F8943881822F809527
:1006C00083238883EC912E2B2C939FBF06C08FB77A
:1006D000F894E8812E2B28838FBFDF91CF91089566
:1006E000863308F0865390917B00282F2870977FDF
:1006F000922B90937B008770806480937C00809124
:100700007A00806480937A0080917A0086FDFCCF25
:10071000809178002091790090E0922B08953FB766
:10072000F89480918F0290919002A0919102B091E3
:10073000920226B5A89B05C02F3F19F00196A11D76
:10074000B11D3FBFBA2FA92F982F8827820F911D67
:10075000A11DB11DBC01CD0142E0660F771F881FAE
:10076000991F4A95D1F708958F929F92AF92BF92A9
:10077000CF92DF92EF92FF926B017C01D0DF4B01B1
:100780005C01C114D104E104F104E9F0C8DFDC012B
:10079000CB0188199909AA09BB09883E9340A10594
:1007A000B10578F321E0C21AD108E108F10888EE1A
:1007B000880E83E0981EA11CB11CC114D104E10471
:1007C000F10421F7DECFFF90EF90DF90CF90BF9044
:1007D000AF909F908F9008952FB7F89460918B02FF
:1007E00070918C0280918D0290918E022FBF08959E
:1007F0008F929F92AF92BF92CF92DF92EF92FF9231
:100800006B017C01E9DF4B015C01C60ED71EE81EBF
:10081000F91EE2DF681579058A059B0528F0C616E2
:10082000D706E806F906A8F7FF90EF90DF90CF9083
:10083000BF90AF909F908F90089520919502309136
:1008400096022817390771F49091930280919402CF
:10085000981741F0E0919302F0E0E65BFD4F808154
:1008600090E008958FEF9FEF089508951F93CF9321
:10087000DF93DC015C962D913C915D97211531054C
:1008800039F481E090E013969C938E9312973DC0CB
:100890005196ED91FC91529750969C915097892FCB
:1008A00080951FB75E964C915E9741FB772770F954
:1008B00041FD6095F8944081772311F0492B01C0E8
:1008C00048234083E9012197F1F748E0508160FF18
:1008D00002C0592B01C058235083E9012197F1F739
:1008E0006695415099F7772321F090818923808381
:1008F00003C08081982B90831FBF5C968D919C9143
:100900005D970197F1F721E030E0C901DF91CF91C8
:100910001F9108952091950230919602281739076A
:1009200061F4809194022091930290E0805C9F4F4B
:10093000821B910960E470E015C680E090E00895A4
:10094000209195023091960228173907B9F49091B9
:10095000930280919402981789F0E0919302F0E05D
:10096000E65BFD4F80812091930230E02F5F3F4F87
:100970002F7333272093930290E008958FEF9FEF1A
:100980000895E0919502F0919602E817F90769F44D
:10099000A389B4899C918589809589238C93109231
:1009A00096021092950281E0089580E008950895DE
:1009B00080E090E00895009761F0FC010190002034
:1009C000E9F73197AF01481B590BBC018FE992E061
:1009D0009ECC80E090E008958F929F92AF92BF925C
:1009E0000F931F93CF93DF93CDB7DEB7A1970FB6C9
:1009F000F894DEBF0FBECDBF19A2423008F44AE022
:100A00008E010F5D1F4F842E912CA12CB12CA501BE
:100A1000940186D5E62FB901CA0101501109EA30C7
:100A200014F4E05D01C0E95CD801EC93232B242B86
:100A3000252B69F7C801BFDFA1960FB6F894DEBF7A
:100A40000FBECDBFDF91CF911F910F91BF90AF909F
:100A50009F908F900895CF92DF92EF92FF92CF9365
:100A6000DF936C01990FEE08FF08F7FE1EC0E091BE
:100A70009F02F091A0020190F081E02D6DE28FE9DC
:100A800092E01995EC0166277727CB016C197D0957
:100A90008E099F094AE0A0DF8C0F9D1FDF91CF9147
:100AA000FF90EF90DF90CF9008954AE0C701B60124
:100AB000DF91CF91FF90EF90DF90CF908DCF81D5D8
:100AC0001F920F920FB60F9211240BB60F922F9315
:100AD0003F934F935F936F937F938F939F93AF93C6
:100AE000BF93EF93FF938FE992E082DCFF91EF9148
:100AF000BF91AF919F918F917F916F915F914F9136
:100B00003F912F910F900BBE0F900FBE0F901F9033
:100B100018951F920F920FB60F9211240BB60F92D9
:100B20002F938F939F93EF93FF93E091AF02F091F8
:100B3000B0028081E091B502F091B60282FD12C050
:100B400090818091B8028F5F8F732091B9028217D4
:100B500051F0E091B802F0E0E156FD4F958F80939F
:100B6000B80201C08081FF91EF919F918F912F91E9
:100B70000F900BBE0F900FBE0F901F9018951F92F5
:100B80000F920FB60F9211242F933F938F939F9341
:100B9000AF93BF9380918B0290918C02A0918D02B4
:100BA000B0918E0230918A0223E0230F2D3720F47A
:100BB0000196A11DB11D05C026E8230F0296A11DB7
:100BC000B11D20938A0280938B0290938C02A09394
:100BD0008D02B0938E0280918F0290919002A0912D
:100BE0009102B09192020196A11DB11D80938F02D6
:100BF00090939002A0939102B0939202BF91AF9113
:100C00009F918F913F912F910F900FBE0F901F904A
:100C100018951F920F920FB60F9211240BB60F92D8
:100C20002F933F934F935F936F937F938F939F93F4
:100C3000AF93BF93EF93FF93E0919502F0919602EB
:100C4000309709F451C0968DA685B785858591FFAB
:100C500004C09C91892329F447C09C91892309F001
:100C600043C0A389B4899C918589809589238C93FD
:100C7000868997890197F1F7608D718DA685B78573
:100C8000558538E020E0CB010197F1F7822F90E005
:100C900095958795282F4C91452309F02068315070
:100CA00091F7868D81FD20958091940290E00196C8
:100CB0008F73992730919302381749F0A0919402CD
:100CC000B0E0A65BBD4F2C938093940203C0868D49
:100CD0008160868F828D938D0197F1F7A389B48906
:100CE0009C918589892B8C93FF91EF91BF91AF9156
:100CF0009F918F917F916F915F914F913F912F9134
:100D00000F900BBE0F900FBE0F901F901895109272
:100D1000A2021092A10288EE93E0A0E0B0E08093DE
:100D2000A3029093A402A093A502B093A60224E08C
:100D300032E03093A00220939F0225EC30E0309304
:100D4000AC022093AB0224EC30E03093AE0220934F
:100D5000AD0220EC30E03093B0022093AF0221ECE2
:100D600030E03093B2022093B10222EC30E03093B5
:100D7000B4022093B30226EC30E03093B602209305
:100D8000B5021092B8021092B9021092BA021092F3
:100D9000BB0210924203109243031092440310923C
:100DA0004503109246031092470310924803109295
:100DB000490310924A0310924B0310924C03109275
:100DC0004D0310924E0310924F0310925003109255
:100DD00051031092880310928703809389039093A4
:100DE0008A03A0938B03B0938C0386E192E09093E7
:100DF00086038093850310929C0310929B031092AC
:100E00009E0310929D031092A00310929F031092D4
:100E1000A2031092A1036091A3036E7F6D7F609384
:100E2000A3036695617081E0682782E1A1DB61E040
:100E300082E11ADCE4EFF1E0E491E0939503EEEA5D
:100E4000F1E0E491F0E0EE0FFF1FE859FE4F8591CD
:100E50009491909397038093960360E080E004DC84
:100E60008091A30381FD03C061E080E081DB1092EB
:100E70009103E2EEF1E0E491E0939203ECE9F1E01A
:100E8000E491F0E0EE0FFF1FEE57FE4F8591949135
:100E9000909394038093930380E88093820385E882
:100EA00093E090938403809383030895789484B5AA
:100EB000826084BD84B5816084BD85B5826085BD56
:100EC00085B5816085BD80916E00816080936E00E4
:100ED00010928100809181008260809381008091D6
:100EE0008100816080938100809180008160809387
:100EF00080008091B10084608093B1008091B00047
:100F000081608093B0008091910082608093910015
:100F10008091910081608093910080919000816028
:100F2000809390008091A10082608093A1008091C5
:100F3000A10081608093A1008091A00081608093D6
:100F4000A000809121018260809321018091210184
:100F50008160809321018091200181608093200134
:100F600080917A00846080937A0080917A00826018
:100F700080937A0080917A00816080937A008091DA
:100F80007A00806880937A001092C10010927E03EC
:100F900010927F03109280031092810310923E03FF
:100FA00010923F03109240031092410368EB7BE0E4
:100FB00080E090E01DDC60ED77E080E090E0D4DB45
:100FC000E091AF02F091B002D2E0D083E091AB02A9
:100FD000F091AC021082E091AD02F091AE0280E19E
:100FE00080831092B702E091B302F091B402C6E0A0
:100FF000C083E091B102F091B20280818061808370
:10100000E091B102F091B202808188608083E0912A
:10101000B102F091B202808180688083E091B102D8
:10102000F091B20280818F7D8083D6DB60933E0396
:1010300070933F03809340039093410384E292E0D6
:10104000BADC6AE070E080E090E0D2DB81E080937F
:101050005203E091AF02F091B002D083E091AB0275
:10106000F091AC021082E091AD02F091AE028FECF3
:1010700080831092B702E091B302F091B402C08372
:10108000E091B102F091B202808180618083E091B1
:10109000B102F091B202808188608083E091B10258
:1010A000F091B202808180688083E091B102F0917A
:1010B000B20280818F7D80831092A00310929F03E3
:1010C00010929E0310929D0310929C0310929B031A
:1010D0008DE991E09093A2038093A1038091910305
:1010E00096EF980F943048F02EEC280F243028F01B
:1010F00022EC280F283008F06EC02DEB30E0309342
:101100009C0320939B032BE931E030939E032093B3
:101110009D032CE231E03093A00320939F03943091
:1011200060F02EEC280F243040F022EC280F2830FD
:1011300008F4E5C1A0E0B0E0E4C1A8E6B0E0E8E66C
:10114000F0E02081943018F08E53883010F081E068
:1011500001C084E0822B8C938091910396EF980FCD
:10116000943058F02EEC280F243038F022EC280F61
:10117000283030F020E030E005C02BE630E002C03F
:101180002DE630E03093990320939803943010F4C7
:101190009AEF0BC0823381F0833381F0843381F086
:1011A00092EC980F983070F492EC980F81E001C0A7
:1011B000880F9A95EAF707C088E005C084E003C06D
:1011C00082E001C081E080939A038091A103909115
:1011D000A2030197F1F780919F039091A003892BBF
:1011E00019F1809195029091960223E0853892073B
:1011F000D9F0009709F0C5DB8091A3038E7F80931F
:10120000A303109294021092930285E893E09093C6
:10121000960280939502E0919803F0919903908152
:1012200080919A03892B8083C0918303D09184039A
:101230006CED75E080E090E097DAE881F98101904B
:10124000F081E02D6AEACE011995E881F9810680E6
:10125000F781E02DCE01199564EF71E080E090E018
:1012600083DA60E088E013D860E08AE010D860E0BC
:1012700086E3FAD960E087E3F7D934EFC32EDD24A3
:10128000D394E12CF12C86E32BDA97FD0396959508
:101290008795959587958C010F5711090038110591
:1012A00014F00FE710E0C8010A96459710F400E02B
:1012B00010E087E315DA97FD0396EC01D595C79505
:1012C000D595C795CF57D109C038D10514F0CFE7D0
:1012D000D0E0CE010A96459710F4C0E0D0E017FFA9
:1012E00006C08BE002383FEF130754F001C08AE0DC
:1012F000202F912F0F3711052CF02EE790E002C020
:1013000022E89FEF622F792F77FF03C071956195D7
:1013100071090E944701D7FF06C089E0C2384FEF2C
:10132000D40754F001C088E02C2F9D2FCF37D10572
:101330002CF02EE790E002C022E89FEF622F792F79
:1013400077FF03C07195619571090E94470144DAE6
:10135000672B682B692B09F4D0C03EDA60939B029F
:1013600070939C0280939D0290939E0280909702BE
:1013700090909802A0909902B0909A026815790511
:101380008A059B0540F460939702709398028093BE
:10139000990290939A028090970290909802A09060
:1013A0009902B0909A029B01AC01281939094A09A7
:1013B0005B0949015A013AEF83169104A104B10473
:1013C00008F49BC0609397027093980280939902EF
:1013D00090939A02C0924A03D0924B03E0924C033E
:1013E000F0924D0310924E0310924F03109250034F
:1013F000109251038091420390914303A0914403C2
:10140000B09145038093460390934703A09348030C
:10141000B0934903E1D960934203709343038093EF
:10142000440390934503D8D960933E0370933F03E0
:101430008093400390934103CFD94B015C0186E335
:1014400092E0B9DA4AE061E070E080E090E0C4DA6E
:101450008DE392E0B0DA4AE0C501B401BDDA8FE372
:1014600092E0A9DA8091420390914303A091440352
:10147000B0914503A5019401281B390B4A0B5B0B66
:10148000CA01B9014AE0A8DA8FE392E094DA8091C8
:10149000420390914303A0914403B091450380908F
:1014A000460390904703A0904803B0904903BC01C5
:1014B000CD01681979098A099B094AE08DDA81E42E
:1014C00092E079DAC801C7DA81E492E074DACE01F9
:1014D000C2DA83E492E06FDA83E392E06CDA65E0EB
:1014E00070E080E090E084D977D9609342037093F4
:1014F0004303809344039093450302D8C4CEA8E6E7
:10150000B0E0283008F41BCEE0E0F0E01ACE86E12F
:1015100092E0909386038093850385E893E031CA37
:10152000A1E21A2EAA1BBB1BFD010DC0AA1FBB1FE7
:10153000EE1FFF1FA217B307E407F50720F0A21B59
:10154000B30BE40BF50B661F771F881F991F1A94C6
:1015500069F760957095809590959B01AC01BD01F0
:10156000CF01089597FB072E16F4009406D077FD5F
:1015700008D013D007FC05D03EF4909581959F4F7D
:101580000895709561957F4F0895EE0FFF1F881F96
:101590008BBF0790F691E02D1994AA1BBB1B51E15C
:1015A00007C0AA1FBB1FA617B70710F0A61BB70BD3
:1015B000881F991F5A95A9F780959095BC01CD0178
:1015C000089581E090E0F89400C011E0C5E1D1E019
:1015D00000E005C0802FFE01D8DF2196011DC63135
:0C15E000D10780E00807B1F7F894FFCFB6
:1015EC000000000019028701B2015F02E301C10192
:1015FC00D5010000000036048701D80435048A04A4
:10160C00A0041D04564D4450565F317C315F564D3D
:10161C004450560D0A00564D4450455F003A323A3C
:0A162C00007C005F564D445045005D
:00000001FF
