:1000000015C1000043C1000041C100003FC1000014
:100010003DC100003BC1000039C1000037C10000F4
:1000200035C1000067C5000065C5000063C500005C
:100030002DC100002BC1000029C1000027C1000014
:1000400025C1000023C1000021C100001FC1000024
:100050001DC100001BC1000019C1000001C5000046
:1000600015C10000C7C400009CC400000FC10000FF
:100070000DC100000BC1000009C1000007C1000054
:1000800005C1000003C1000001C10000FFC0000065
:10009000FDC00000FBC00000F9C00000F7C0000078
:1000A000F5C00000F3C00000F1C00000EFC0000088
:1000B000EDC00000EBC00000E9C00000E7C0000098
:1000C000E5C00000E3C00000E1C00000DFC00000A8
:1000D000DDC00000DBC00000D9C00000D7C00000B8
:1000E000D5C00000E602E902D802DC02E0022003EB
:1000F000ED02F102F702FB02FF02050309030D0303
:100100002003130317031B0300000A0B02090C0D45
:100110000E080703040100000000000000000000BA
:1001200000000000000000000000000000000000CF
:10013000000000001211100000000000000000008C
:1001400000000000000000000000000000000000AF
:100150002200250028002B002E003100340002016F
:100160000000050108010B01000021002400270008
:100170002A002D00300033000101000004010701B6
:100180000A01000020002300260029002C002F0077
:100190003200000100000301060109010505050503
:1001A000070508080808020202020A0A08080404EF
:1001B000040401010101010101010303030303031D
:1001C0000303040707070C0C0C0C0C0C0C0C0202AC
:1001D000020206060606060606060B0B0B0B0B0BA9
:1001E0000B0B010210202008081020401020408036
:1001F00002010201080402010102040810204080EB
:100200008040201008040201800402018040201078
:1002100008040201080402010102040810204080C1
:100220000102040810204080F8050C0A11241FBEAA
:10023000CFEFD1E2DEBFCDBF00E00CBF23E0ACE4E6
:10024000B2E001C01D92A83AB207E1F712E0A0E0C7
:10025000B2E0E6EFF4E100E00BBF02C007900D92C0
:10026000AC34B107D9F711E0C5E1D1E000E006C038
:1002700021970109802FFE010E944A0AC431D1074B
:1002800080E00807A9F7C2D50C946A0AB9CE0F938B
:100290001F93CF93DF93C82FD62F06E813E0D80122
:1002A00011968D919C911297DC01ED91FC9101903A
:1002B000F081E02DD8016C911995F801818192812E
:1002C000DC01ED91FC910190F081E02D6C2F1995EE
:1002D000F80181819281DC01ED91FC910190F08126
:1002E000E02D6D2F1995F801A181B2812D913C91DE
:1002F000119790816D2F690F6C0F6F77E901E8817D
:10030000F981CD01DF91CF911F910F911994CF9277
:10031000DF92EF92FF920F931F93CF93DF936C01C5
:100320007A018B01C0E0D0E0CE15DF0589F0D8015D
:100330006D918D01D601ED91FC910190F081E02D40
:10034000C6011995892B11F47E0102C02196ECCFCC
:10035000C701DF91CF911F910F91FF90EF90DF9038
:10036000CF900895FC01538D448D252F30E0842FCC
:1003700090E0821B930B541710F0CF9608950197CD
:100380000895FC01918D828D981761F0828DDF01B7
:10039000A80FB11D5D968C91928D9F5F9F73928F78
:1003A00090E008958FEF9FEF0895FC01918D828D6D
:1003B000981731F0828DE80FF11D858D90E008953A
:1003C0008FEF9FEF0895FC01918D228D892F90E092
:1003D000805C9F4F821B91098F739927089583EA50
:1003E00092E0F1DF21E0892B09F420E0822F0895CB
:1003F000FC01848DDF01A80FB11DA35ABF4F2C91C2
:10040000848D90E001968F739927848FA689B78990
:100410002C93A089B1898C9180648C93938D848D69
:10042000981306C00288F389E02D80818F7D808338
:100430000895EF92FF920F931F93CF93DF93EC01F8
:1004400081E0888F9B8D8C8D981305C0E889F98990
:10045000808185FD23C0F62E0B8D10E00F5F1F4FAE
:100460000F731127E02E8C8DE8120BC00FB607FC1E
:10047000FACFE889F989808185FFF5CFCE01B8DF11
:10048000F2CF8B8DFE01E80FF11DE35AFF4FF08292
:100490000B8FEA89FB898081806207C0EE89FF8922
:1004A0006083E889F98980818064808381E090E0BD
:1004B000DF91CF911F910F91FF90EF900895CF930F
:1004C000DF93EC01888D8823C1F0EA89FB89808164
:1004D00085FD05C0A889B9898C9186FD0EC00FB62F
:1004E00007FCF5CF808185FFF2CFA889B9898C916F
:1004F00085FFEDCFCE017CDFE8CFDF91CF9108956E
:1005000080E090E0892B19F06ADF811125C080E03E
:1005100090E0892B41F080E090E0892B21F00E944F
:10052000000081111CC080E090E0892B41F080E048
:1005300090E0892B21F00E940000811113C080E01F
:1005400090E0892BA1F080E090E0892B81F00E945F
:10055000000081110AC008950E940000D8CF0E94B7
:100560000000E1CF0E940000EACF0C940000089543
:10057000362F90E0FC01E85FFE4F4491FC01EE5104
:10058000FE4F2491FC01E456FE4F9491992309F407
:100590006AC0442309F454C050E0FA013197E231B3
:1005A000F10508F04DC08827EE58FF4F8F4F72C7F6
:1005B000809180008F7707C0809180008F7D03C07D
:1005C00080918000877F809380003AC084B58F77C8
:1005D00002C084B58F7D84BD33C08091B0008F7719
:1005E00003C08091B0008F7D8093B00029C08091BE
:1005F00090008F7707C0809190008F7D03C080911D
:100600009000877F809390001BC08091A0008F771F
:1006100007C08091A0008F7D03C08091A000877FDC
:100620008093A0000DC0809120018F7707C080913A
:1006300020018F7D03C080912001877F809320015E
:10064000E92FF0E0EE0FFF1FE25BFE4FA591B491A2
:100650008FB7F894EC91311103C020952E2301C07F
:100660002E2B2C938FBF08953FB7F8948091910261
:1006700090919202A0919302B091940226B5A89B0A
:1006800005C02F3F19F00196A11DB11D3FBFBA2F24
:10069000A92F982F8827820F911DA11DB11DBC0184
:1006A000CD0142E0660F771F881F991F4A95D1F749
:1006B00008958F929F92AF92BF92CF92DF92EF9266
:1006C000FF926B017C01D0DF4B015C01C114D104AE
:1006D000E104F104E9F0C8DFDC01CB0188199909D4
:1006E000AA09BB09883E9340A105B10578F321E032
:1006F000C21AD108E108F10888EE880E83E0981E3E
:10070000A11CB11CC114D104E104F10421F7DECF16
:10071000FF90EF90DF90CF90BF90AF909F908F9021
:1007200008952FB7F89460918D0270918E02809198
:100730008F02909190022FBF08958F929F92AF9257
:10074000BF92CF92DF92EF92FF926B017C01E9DFC3
:100750004B015C01C60ED71EE81EF91EE2DF6815CC
:1007600079058A059B0528F0C616D706E806F9061E
:10077000A8F7FF90EF90DF90CF90BF90AF909F9041
:100780008F90089520919702309198022817390789
:1007900071F49091950280919602981741F0E09142
:1007A0009502F0E0E45BFD4F808190E008958FEFCB
:1007B0009FEF089508951F93CF93DF93DC015C961C
:1007C0002D913C915D972115310539F481E090E040
:1007D00013969C938E9312973DC05196ED91FC9188
:1007E000529750969C915097892F80951FB75E968F
:1007F0004C915E9741FB772770F941FD6095F89425
:100800004081772311F0492B01C048234083E9013F
:100810002197F1F748E0508160FF02C0592B01C0D9
:1008200058235083E9012197F1F76695415099F7D4
:10083000772321F090818923808303C08081982BC6
:1008400090831FBF5C968D919C915D970197F1F706
:1008500021E030E0C901DF91CF911F9108952091EF
:100860009702309198022817390761F48091960217
:100870002091950290E0805C9F4F821B910960E47B
:1008800070E0F5C580E090E00895209197023091E6
:10089000980228173907B9F4909195028091960231
:1008A000981789F0E0919502F0E0E45BFD4F8081BC
:1008B0002091950230E02F5F3F4F2F733327209315
:1008C000950290E008958FEF9FEF0895E0919702D1
:1008D000F0919802E817F90769F4A389B4899C910B
:1008E0008589809589238C931092980210929702A3
:1008F00081E0089580E00895089580E090E00895F3
:10090000009761F0FC0101900020E9F73197AF01F9
:10091000481B590BBC0183EA92E0F9CC80E090E0DF
:1009200008958F929F92AF92BF920F931F93CF9390
:10093000DF93CDB7DEB7A1970FB6F894DEBF0FBE39
:10094000CDBF19A2423008F44AE08E010F5D1F4F5F
:10095000842E912CA12CB12CA501940166D5E62FF3
:10096000B901CA0101501109EA3014F4E05D01C077
:10097000E95CD801EC93232B242B252B69F7C801C4
:10098000BFDFA1960FB6F894DEBF0FBECDBFDF91DB
:10099000CF911F910F91BF90AF909F908F9008952E
:1009A00095D51F920F920FB60F9211240BB60F928E
:1009B0002F933F934F935F936F937F938F939F9367
:1009C000AF93BF93EF93FF9383EA92E011DDFF9122
:1009D000EF91BF91AF919F918F917F916F915F91B7
:1009E0004F913F912F910F900BBE0F900FBE0F9024
:1009F0001F9018951F920F920FB60F9211240BB6ED
:100A00000F922F938F939F93EF93FF93E091B302F5
:100A1000F091B4028081E091B902F091BA0282FDB6
:100A200012C090818091BC028F5F8F732091BD02B4
:100A3000821751F0E091BC02F0E0ED55FD4F958F2B
:100A40008093BC0201C08081FF91EF919F918F91B3
:100A50002F910F900BBE0F900FBE0F901F90189507
:100A60001F920F920FB60F9211242F933F938F93E3
:100A70009F93AF93BF9380918D0290918E02A0912E
:100A80008F02B091900230918C0223E0230F2D371A
:100A900020F40196A11DB11D05C026E8230F029682
:100AA000A11DB11D20938C0280938D0290938E0224
:100AB000A0938F02B0939002809191029091920244
:100AC000A0919302B09194020196A11DB11D809353
:100AD000910290939202A0939302B0939402BF91DB
:100AE000AF919F918F913F912F910F900FBE0F90DB
:100AF0001F9018951F920F920FB60F9211240BB6EC
:100B00000F922F933F934F935F936F937F938F93A6
:100B10009F93AF93BF93EF93FF93E0919702F09170
:100B20009802309709F451C0968DA685B7858585C2
:100B300091FF04C09C91892329F447C09C9189238B
:100B400009F043C0A389B4899C9185898095892344
:100B50008C93868997890197F1F7608D718DA685B1
:100B6000B785558538E020E0CB010197F1F7822F5A
:100B700090E095958795282F4C91452309F02068A2
:100B8000315091F7868D81FD20958091960290E0FD
:100B900001968F73992730919502381749F0A091EB
:100BA0009602B0E0A45BBD4F2C938093960203C0E5
:100BB000868D8160868F828D938D0197F1F7A38951
:100BC000B4899C918589892B8C93FF91EF91BF917A
:100BD000AF919F918F917F916F915F914F913F91D5
:100BE0002F910F900BBE0F900FBE0F901F90189576
:100BF0000F931F93CF93DF931092A6021092A5023A
:100C000088EE93E0A0E0B0E08093A7029093A80262
:100C1000A093A902B093AA0225E032E03093A40287
:100C20002093A30225EC30E03093B0022093AF0272
:100C300024EC30E03093B2022093B10220EC30E09B
:100C40003093B4022093B30221EC30E03093B6022B
:100C50002093B50222EC30E03093B8022093B70223
:100C600026EC30E03093BA022093B9021092BC0215
:100C70001092BD021092BE021092BF021092460363
:100C800010924703109248031092490310924A03AE
:100C900010924B0310924C0310924D0310924E038E
:100CA00010924F031092500310925103109252036E
:100CB00010925303109254031092550310928C0318
:100CC00010928B0380938D0390938E03A0938F03D8
:100CD000B093900387E192E090938A038093890315
:100CE0001092A00310929F031092A2031092A103EE
:100CF0001092A4031092A3031092A6031092A503CE
:100D00006091A7036E7F6D7F6093A7036695617006
:100D100081E0682782E12CDCE4EFF1E02491EEEA47
:100D2000F1E08491882399F090E0880F991FFC01ED
:100D3000E859FE4FA591B491FC01E25BFE4F85910D
:100D400094918FB7F894EC91E22BEC938FBFE4EF82
:100D5000F1E0E491E0939903EEEAF1E0E491F0E050
:100D6000EE0FFF1FE25BFE4F8591949190939B03E2
:100D700080939A0302EE11E0F8012491CCE9D1E0CE
:100D8000FE0184918823C9F090E0880F991FFC012F
:100D9000E859FE4FA591B491825B9E4FFC014591AD
:100DA00054913FB7F8949C91822F809598239C93FF
:100DB000FA019081892380833FBF8091A70381FD41
:100DC00003C061E080E0D4DB10929503F801049148
:100DD00000939603FE01C491EC2FF0E0EE0FFF1F8D
:100DE000EE57FE4F859194919093980380939703CB
:100DF00080E88093860389E893E09093880380934A
:100E00008703DF91CF911F910F910895789484B556
:100E1000826084BD84B5816084BD85B5826085BDF6
:100E200085B5816085BD80916E00816080936E0084
:100E30001092810080918100826080938100809176
:100E40008100816080938100809180008160809327
:100E500080008091B10084608093B1008091B000E7
:100E600081608093B00080919100826080939100B6
:100E700080919100816080939100809190008160C9
:100E8000809390008091A10082608093A100809166
:100E9000A10081608093A1008091A0008160809377
:100EA000A000809121018260809321018091210125
:100EB00081608093210180912001816080932001D5
:100EC00080917A00846080937A0080917A008260B9
:100ED00080937A0080917A00816080937A0080917B
:100EE0007A00806880937A001092C1001092820389
:100EF0001092830310928403109285031092420390
:100F000010924303109244031092450368EB7BE078
:100F100080E090E012DC60ED77E080E090E0C9DBFB
:100F2000E091B302F091B402D2E0D083E091AF023D
:100F3000F091B0021082E091B102F091B20280E132
:100F400080831092BB02E091B702F091B802C6E034
:100F5000C083E091B502F091B60280818061808308
:100F6000E091B502F091B602808188608083E091C3
:100F7000B502F091B602808180688083E091B5026D
:100F8000F091B60280818F7D8083CBDB609342033A
:100F900070934303809344039093450385E292E06A
:100FA000AFDC6AE070E080E090E0C7DB81E0809336
:100FB0005603E091B302F091B402D083E091AF0206
:100FC000F091B0021082E091B102F091B2028FEC88
:100FD00080831092BB02E091B702F091B802C08307
:100FE000E091B502F091B602808180618083E0914A
:100FF000B502F091B602808188608083E091B502ED
:10100000F091B602808180688083E091B502F09112
:10101000B60280818F7D80831092A4031092A30377
:101020001092A2031092A1031092A00310929F03AA
:101030008DE991E09093A6038093A5038091950399
:1010400096EF980F943048F02EEC280F243028F0BB
:1010500022EC280F283008F06EC02DEB30E03093E2
:10106000A00320939F032BE931E03093A203209348
:10107000A1032CE231E03093A4032093A303943026
:1010800060F02EEC280F243040F022EC280F28309E
:1010900008F4BAC1A0E0B0E0B9C1A8E6B0E0E8E663
:1010A000F0E02081943018F08E53883010F081E009
:1010B00001C084E0822B8C938091950396EF980F6A
:1010C000943058F02EEC280F243038F022EC280F02
:1010D000283030F020E030E005C02BE630E002C0E0
:1010E0002DE630E030939D0320939C03943010F460
:1010F0009AEF0BC0823381F0833381F0843381F027
:1011000092EC980F983070F492EC980F81E001C047
:10111000880F9A95EAF707C088E005C084E003C00D
:1011200082E001C081E080939E038091A5039091AD
:10113000A6030197F1F78091A3039091A403892B53
:1011400019F1809197029091980223E089389207D3
:10115000D9F0009709F0BADB8091A7038E7F8093C6
:10116000A703109296021092950289E893E090935B
:10117000980280939702E0919C03F0919D039081E7
:1011800080919E03892B8083C0918703D09188032F
:101190006CED75E080E090E08CDAE881F9810190F7
:1011A000F081E02D6AEACE011995E881F981068087
:1011B000F781E02DCE01199564EF71E080E090E0B9
:1011C00078DA60E088E063D860E08AE060D884EF95
:1011D000C82EDD24D394E12CF12CC1E0A2DA672BD8
:1011E000682B692B39F49DDA623071058105910510
:1011F00008F4CCC096DA60939F027093A0028093AB
:10120000A1029093A20280909B0290909C02A090D9
:101210009D02B0909E02681579058A059B0540F4F1
:1012200060939B0270939C0280939D0290939E0218
:1012300080909B0290909C02A0909D02B0909E0294
:101240009B01AC01281939094A095B0949015A0176
:101250003AEF83169104A104B10408F497C0609397
:101260009B0270939C0280939D0290939E02C09279
:101270004E03D0924F03E0925003F092510310922C
:10128000520310925303109254031092550380910D
:10129000460390914703A0914803B091490380937E
:1012A0004A0390934B03A0934C03B0934D0339DA58
:1012B00060934603709347038093480390934903D8
:1012C00030DA609342037093430380934403909316
:1012D000450327DA4B015C0187E392E011DB4AE02A
:1012E00061E070E080E090E01CDB8EE392E008DBE0
:1012F0004AE0C501B40115DB80E492E001DB809196
:10130000460390914703A0914803B0914903A5017A
:101310009401281B390B4A0B5B0BCA01B9014AE047
:1013200000DB80E492E0ECDA809146039091470381
:10133000A0914803B091490380904A0390904B03D9
:10134000A0904C03B0904D03BC01CD016819790900
:101350008A099B094AE0E5DA82E492E0D1DAE1D930
:101360004AE0DFDA84E492E0CBDA84E392E0C8DAA0
:1013700065E070E080E090E0E0D9D3D96093460367
:1013800070934703809348039093490360919902B7
:1013900070919A0277FF06C08BE062383FEF7307C7
:1013A00044F001C08AE06F3771052CF06EE770E001
:1013B00002C062E87FEF77FF03C071956195710904
:1013C0000E944701209100028091990290919A0217
:1013D000222331F0803891054CF01092000208C0B1
:1013E00081384FEF940724F4C0930002019601C0A6
:1013F000019790939A028093990264E670E080E0EE
:1014000090E057D97DD8EACEA8E6B0E0283008F4BD
:1014100046CEE0E0F0E045CE87E192E090938A038B
:101420008093890389E893E051CAA1E21A2EAA1B8E
:10143000BB1BFD010DC0AA1FBB1FEE1FFF1FA21784
:10144000B307E407F50720F0A21BB30BE40BF50B81
:10145000661F771F881F991F1A9469F7609570950A
:10146000809590959B01AC01BD01CF01089597FB3C
:10147000072E16F4009406D077FD08D013D007FC91
:1014800005D03EF4909581959F4F08957095619594
:101490007F4F0895EE0FFF1F881F8BBF0790F691B7
:1014A000E02D1994AA1BBB1B51E107C0AA1FBB1F4B
:1014B000A617B70710F0A61BB70B881F991F5A95E0
:1014C000A9F780959095BC01CD01089581E090E049
:1014D000F89400C011E0C5E1D1E000E005C0802F24
:1014E000FE01D8DF2196011DC631D10780E0080733
:0614F000B1F7F894FFCFF4
:1014F600010000000019028701B2015F02E301C189
:1015060001D50100000000DB0387017D04DA032F0B
:10151600044504C203564D4450565F317C315F5634
:101526004D4450560D0A00564D4450455F003A3220
:0C1536003A007C005F564D445045000018
:00000001FF
